:1000000012C0A3C1F3C12AC029C028C027C026C07E
:1000100025C024C023C06EC121C020C01FC01EC087
:100020001DC01CC01BC011241FBECFE5D4E0DEBF25
:10003000CDBF10E0A0E6B0E0E2EDF4E002C0059034
:100040000D92A036B107D9F710E0A0E6B0E001C0EC
:100050001D92A436B107E1F7F5D03AC2D1CFCF93C4
:10006000DF93CDB7DEB721970FB6F894DEBF0FBE92
:10007000CDBF8983EBE2F0E08081882F90E0807231
:1000800090700097B9F3ECE2F0E0898180832196CB
:100090000FB6F894DEBF0FBECDBFDF91CF910895AC
:1000A000CF93DF93CDB7DEB78EE7D9DF82E0D7DF1E
:1000B00081E0D5DF8FEED3DFDF91CF910895CF932D
:1000C000DF93CDB7DEB78EE7CADF83E0C8DF83E317
:1000D000C6DF81E0C4DF8FEEC2DFDF91CF910895EC
:1000E000CF93DF93CDB7DEB78EE7B9DF82E0B7DF1E
:1000F00082E0B5DF8FEEB3DFDF91CF910895CF932C
:10010000DF93CDB7DEB78EE7AADF82E0A8DF8EE00F
:10011000A6DF8FEEA4DFDF91CF910895CF93DF9319
:10012000CDB7DEB78EE79BDF84E099DF84E497DF0D
:1001300081E095DF83E093DF8FEE91DFDF91CF9158
:100140000895CF93DF93CDB7DEB722970FB6F8941B
:10015000DEBF0FBECDBF9A8389838EE780DF83E049
:100160007EDF81E37CDF89817ADF8FEE78DF88EACA
:1001700092E02BD022960FB6F894DEBF0FBECDBF13
:10018000DF91CF910895CF93DF93CDB7DEB722975C
:100190000FB6F894DEBF0FBECDBF81E090E09A832A
:1001A000898305C089819A8101969A83898389818F
:1001B0009A818D389105B0F322960FB6F894DEBF80
:1001C0000FBECDBFDF91CF910895CF93DF93CDB711
:1001D000DEB724970FB6F894DEBF0FBECDBF9C8369
:1001E0008B831A82198206C0CEDF89819A8101969B
:1001F0009A83898329813A818B819C8128173907C9
:1002000098F324960FB6F894DEBF0FBECDBFDF91F2
:10021000CF910895CF93DF93CDB7DEB7E0E4F0E060
:100220001082E9E2F0E083E38083EBE2F0E0108209
:10023000AAE2B0E0EAE2F0E0808188698C93DF9185
:10024000CF910895CF93DF93CDB7DEB722970FB646
:10025000F894DEBF0FBECDBFDDDFA1E3B0E0E1E388
:10026000F0E0808184608C93A2E3B0E0E2E3F0E010
:10027000808184608C9380E197E2A7DF20DF88E8AB
:1002800093E1A3DF0DDF88E59BE19FDF86E090E04F
:1002900058DF87E090E055DF88E090E052DF89E0AA
:1002A00090E04FDF80E190E04CDF8AE190E049DFB1
:1002B0008BE190E046DF8CE190E043DF8DE190E060
:1002C00040DF8EE190E03DDF80E89AE17EDFA5E54A
:1002D000B0E0E5E5F0E0808184608C93ABE5B0E0D0
:1002E000EBE5F0E08081806C8C9380E89AE16DDF33
:1002F0007894FFCF1F920F920FB60F9211248F9315
:100300009F93AF93BF93EF93FF93CF93DF93CDB7BB
:10031000DEB7ECE2F0E08081882F90E0A0E0B0E072
:100320008093600090936100A0936200B09363009B
:10033000DF91CF91FF91EF91BF91AF919F918F91FD
:100340000F900FBE0F901F9018951F920F920FB62F
:100350000F9211242F933F934F935F936F937F934B
:100360008F939F93AF93BF93EF93FF93CF93DF93BD
:10037000CDB7DEB7ABE5B0E0EBE5F0E080818F7B99
:100380008C93789488EE93E020DFE0E3F0E08081C6
:10039000882F90E084709070009771F4BFDE03C0E6
:1003A00080EA96E812DFE0E3F0E08081882F90E0B9
:1003B000847090700097A1F3ABE5B0E0EBE5F0E05E
:1003C000808180648C93DF91CF91FF91EF91BF91F9
:1003D000AF919F918F917F916F915F914F913F91DD
:1003E0002F910F900FBE0F901F9018951F920F9294
:1003F0000FB60F9211242F933F934F935F936F93F8
:100400007F938F939F93AF93BF93EF93FF93CF937C
:10041000DF93CDB7DEB7ABE5B0E0EBE5F0E0908180
:100420008FE789238C9388E893E1CFDEE0E3F0E067
:100430008081882F90E088709070009709F450DEDA
:10044000E0E3F0E08081882F90E088709070009762
:1004500011F185E090E075DE23DE86E090E071DE4C
:1004600087E090E06EDE88E090E06BDE89E090E06F
:1004700068DE80E190E065DE8AE190E062DE8BE19B
:1004800090E05FDE8CE190E05CDE8DE190E059DE93
:100490008EE190E056DE80E197E297DEABE5B0E0DA
:1004A000EBE5F0E0808180688C93DF91CF91FF9144
:1004B000EF91BF91AF919F918F917F916F915F91DC
:1004C0004F913F912F910F900FBE0F901F90189555
:0204D000FFCF5C
:00000001FF
